:020000040800F2
:10000000080500204901000893180008E3160008BD
:1000100091180008B50100085D1D000800000000EF
:100020000000000000000000000000009718000819
:10003000B701000800000000951800089918000892
:100040006301000863010008630100086301000800
:1000500063010008630100086301000863010008F0
:1000600063010008630100086301000863010008E0
:1000700063010008630100086301000863010008D0
:1000800063010008630100086301000863010008C0
:1000900063010008630100086301000863010008B0
:1000A000ED1800086301000863010008F918000852
:1000B0006301000863010008630100086301000890
:1000C0006301000863010008630100086301000880
:1000D0006301000863010008630100086301000870
:1000E0006301000863010008630100086301000860
:1000F0006301000863010008630100086301000850
:10010000630100086301000863010008630100083F
:10011000630100086301000863010008630100082F
:10012000630100086301000863010008630100081F
:10013000DFF810D000F02CF8004800479D1D0008A3
:10014000AFF30080080500200648804706480047B6
:10015000FEE7FEE7FEE7FEE7FEE7FEE7FEE7FEE777
:10016000FEE7FEE7EB18000831010008D2B201E01B
:1001700000F8012B491EFBD270470022F6E710B5AC
:1001800013460A4604461946FFF7F0FF204610BD05
:10019000064C074D06E0E06840F0010394E80700D4
:1001A00098471034AC42F6D3FFF7C6FFC01E0008D4
:1001B000E01E0008FEE770477047000070B5044677
:1001C00000F00AF90546601C02D004480078044497
:1001D00000F002F9401BA042FAD370BD20000020BD
:1001E0002DE9F84FDFF8C891002409F1040A0AF15B
:1001F000040B23460F270BF1040ED1E00125A54087
:1002000006EA0502AA4276D1DFF8A8C14E68A6EB3D
:100210000C0866452BD00DDC032E34D005DC36B33C
:10022000012E19D0022E2FD11BE0112E16D0122E26
:100230002AD119E0B8F5881F19D006DCB8F5803F3F
:1002400015D0B8F5801F1FD111E0B8F5001F0ED0F2
:10025000B8F5041F18D10AE0CB6815E0CB681B1D68
:1002600012E0CB6808330FE0CB680C330CE08B68EE
:100270002BB1012B4FF0080303D0456104E00423A8
:1002800002E0056100E00023FF2A01D8064601E0F4
:1002900000F104064FEA840501D9A5F12005D6F83E
:1002A000008007FA05FC28EA0C0803FA05F548EA7D
:1002B0000508C6F800804D68ED0070D53E4DAE696A
:1002C00046F00106AE61AD6924F0030605F00105B4
:1002D00000953A4D06EB050CDCF80850A607360FE2
:1002E00007FA06F825EA0805DFF8D480404503D16F
:1002F0004FF0000825E052E0DFF8C880404502D109
:100300004FF001081DE0DFF8C080404502D14FF0FA
:10031000020816E0DFF8B480404502D14FF0030830
:100320000FE0DFF8AC80404502D14FF0040808E050
:10033000DFF8A080404502D14FF0050801E04FF002
:10034000060808FA06F848EA0508CCF808804D685F
:10035000D9F80060ED034D4601D5164300E0964301
:100360002E604D68DAF80060AD03554601D516439E
:1003700000E096432E604D68DBF80060ED025D46BC
:1003800001D5164300E096432E604D68DEF800600C
:10039000AD02754601D5164300E096432E60641CFD
:1003A0000A681646E2407FF429AFBDE8F88F0000E6
:1003B0000004014000001110001002400000014044
:1003C00000080140000C01400010014000140140F1
:1003D00000180140001C014001488068704700007F
:1003E0002000002002488168027811448160704733
:1003F00020000020074810B5016841F0100101609D
:10040000032000F075F8002000F006F800F024F852
:10041000002010BD0020024070B50D4D04464FF481
:100420007A712878B1FBF0F00A490968B1FBF0F065
:1004300000F0ECFA48B9102C07D200222146501ED9
:1004400000F036F800206C6070BD012070BD000027
:10045000200000202C0000200C4808B5816941F0E4
:1004600001018161816901F001010091C16941F0DF
:100470008051C161C06900F080500090044841681B
:1004800021F0E06141F00071416008BD00100240C0
:1004900000000140002809DB00F01F02012191400B
:1004A0004009800000F1E020C0F800117047000012
:1004B000F0B40E4B1B680C46C3F30223C3F10705CF
:1004C000042D00D90425191D072901D2002300E0BD
:1004D000DB1E012606FA05F1491E214099409E4087
:1004E000761E16403143F0BC01F039BC0CED00E043
:1004F000064900F0070208684FF6FF03184040EA7B
:100500000220034A10430860704700000CED00E031
:100510000000FA052DE9F0470F46050061D0434E73
:10052000306800F00700B84209D2306820F00700B8
:1005300038433060306800F00700B84251D1286875
:100540003B4C810712D5400703D5606840F4E0605A
:1005500060602878000703D5606840F460506060F0
:100560006068A96820F0F000084360602878C00740
:1005700028D06868012810D02168022810D0890787
:1005800000292EDA616821F0030101436160FFF761
:1005900023FF804641F288390DE021688903EFE7A7
:1005A0008901EDE7FFF718FFA0EB0801494502D9E3
:1005B0000320BDE8F0876068696800F00C00B0EBCC
:1005C000810FEFD1306800F00700B8420BD93068D6
:1005D00020F0070038433060306800F00700B84270
:1005E00001D00120E5E72878400705D56068E96873
:1005F00020F4E060084360602878000706D5606852
:10060000296920F4605040EAC100606000F038F8C9
:100610006168084AC1F30311515CC840064908608B
:1006200006480068FFF7F8FE0020C2E700200240FD
:1006300000100240A81E00082C000020240000200A
:100640000448054900684968044AC1F30221515C25
:10065000C84070472C00002000100240B81E00085F
:100660000448054900684968044AC1F3C221515C45
:10067000C84070472C00002000100240B81E00083F
:1006800012A185B00FC98DE80F0014A0144A0068AC
:1006900004905168134801F00C03042B10D0082B70
:1006A0000ED1C1F38343C9031DF803000AD5516875
:1006B00004AAC1F34041515C0A4A5043B0FBF1F037
:1006C00005B0704708494843FAE7000002030405F3
:1006D000060708090A0B0C0D0E0F1010010200008E
:1006E0000010024000127A0000093D002DE9F84F89
:1006F000040070D02078C04DC00749D06868C0F3AE
:100700008100012807D06868C0F38100022809D160
:100710006868C00306D52868800339D5606800285A
:10072000E7D035E06068B0F5803F0BD010B1B0F590
:10073000A02F11D0286820F480302860286820F489
:10074000802002E0286840F480302860606890B122
:10075000FFF742FE06460AE0286840F48020286041
:10076000F0E700BFFFF738FE801B642873D82868C5
:100770008003F7D50CE0FFF72FFE064605E000BF2B
:10078000FFF72AFE801B6428F0D828688003F7D47E
:1007900020789A4E80074FF001094FF0000839D5B4
:1007A000686810F00C0F07D06868C0F38100022859
:1007B00009D16868C00306D42868800714D5206969
:1007C000012808D110E02069B0B1C6F80090FFF709
:1007D00003FE074605E00AE1FFF7FEFDC01B022805
:1007E000C4D828688007F7D52868616920F0F80028
:1007F00040EAC10028600DE0C6F80080FFF7ECFD7C
:10080000074604E0FFF7E8FDC01B022823D828684C
:100810008007F7D4207800072CD57948A169D9B191
:10082000C0F80090FFF7D8FD074604E0FFF7D4FDBD
:10083000C01B02280FD8686A8007F7D571484FF4AB
:10084000FA510068B0FBF1F0009000BF0098411E23
:100850000091FAD20EE080E0C0F80080FFF7BCFD06
:10086000074604E0FFF7B8FDC01B022875D8686A88
:100870008007F7D42078400760D5E8690027C000DA
:1008800008D4E86940F08050E861E869012700F089
:10089000805000905C480168C90513D40168834604
:1008A00041F480710160FFF797FD824606E000BFCA
:1008B000FFF792FDA0EB0A0064284ED8DBF8000099
:1008C000C005F5D5E06801280AD008B1052813D085
:1008D000286A20F001002862286A20F0040002E063
:1008E000286A40F001002862E06841F2883B98B134
:1008F000FFF772FD82460BE0286A40F00400286290
:10090000EEE700BFFFF768FDA0EB0A0159455AD892
:10091000286A8007F6D50CE0FFF75EFD824605E009
:10092000FFF75AFDA0EB0A0159454CD8286A800709
:10093000F6D41FB1E86920F08050E861E06988B31F
:100940006968C1F38101022944D00228C6F8608099
:1009500004D0FFF741FD044638E034E0FFF73CFDEA
:10096000074604E0FFF738FDC01B02282BD8286893
:100970008001F7D4206AB0F5803F05D16868A1688E
:1009800020F4003008436860D4E90801084369682E
:1009900021F4741108436860C6F86090FFF71CFDED
:1009A000044606E025E000BFFFF716FD001B022805
:1009B00009D828688001F7D51BE000BFFFF70CFDC0
:1009C000001B022802D90320BDE8F88F28688001A7
:1009D000F4D40EE00128F7D06868226A00F4803170
:1009E000914204D1616A00F47010884201D0012064
:1009F000EAE70020E8E70000001002400000424261
:100A0000800442422C0000200070004010B5401EBF
:100A1000B0F1807F01D3012010BD4FF0E024606170
:100A20000F21601701F09BF90020A06107202061D1
:100A3000002010BD7047704770B590F83C20012A27
:100A40002CD0012480F83C40022280F83D2003682D
:100A50005A689D6822F070060A6832435A60104B4B
:100A600002689A420ED00F4B9A420BD0B2F1804FDF
:100A700008D00D4B9A4205D00C4B9A4202D00C4B39
:100A80009A4204D1496825F080031943916080F8A7
:100A90003D40002180F83C10084670BD022070BD2A
:100AA000002C0140003401400004004000080040D8
:100AB000000C004010B5040003D094F83D0010B1C4
:100AC00007E0012010BD002084F83C00204600F023
:100AD0001FF8022084F83D00211D206800F012FF5D
:100AE000012084F8460084F83E0084F83F0084F832
:100AF000400084F8410084F8420084F8430084F800
:100B0000440084F8450084F83D00002010BD00003A
:100B100000B585B000210091019102910391006818
:100B20001B49884232D11B48816941F400618161CF
:100B3000816901F400610491816941F040018161A2
:100B40008069694600F0400004904FF4D440009062
:100B5000022002901048FFF743FB1048416821F043
:100B6000C00141F0E06141F0C00141600022114646
:100B70001820FFF79DFC1820FFF78CFC002211467F
:100B80001B20FFF795FC1B20FFF784FC05B000BD80
:100B9000002C0140001002400018014000000140FC
:100BA00090F83D10012901D001207047022180F802
:100BB0003D1000680E4988420ED00E4988420BD085
:100BC000B0F1804F08D00C49884205D00B498842CB
:100BD00002D00B49884204D1816801F0070106293F
:100BE00003D0016841F0010101600020704700005E
:100BF000002C014000340140000400400008004087
:100C0000000C004070B5044690F83C00012817D055
:100C1000012584F83C50022084F83D002068826859
:100C200022F0770222F47F4282600868502830D098
:100C30000DDC20284DD005DC98B310283BD148E0CE
:100C4000022070BD302844D0402834D139E06028DB
:100C500028D0702806D0B0F5805F2CD0B0F5005FAA
:100C600029D10AE0CB68D1E90121206800F09DFE7E
:100C70002068816841F0770109E0CB68D1E9012162
:100C8000206800F092FE2068816841F48041816014
:100C900011E0CA684968206800F05CFF50212068B4
:100CA00007E016E0CA684968206800F09BFF6021F1
:100CB000206800F084FE84F83D50002084F83C0059
:100CC00070BDCA684968206800F044FF4021206870
:100CD000EFE7226801461046EBE700002DE9F047F8
:100CE00005460A231A4682A1824800F0A1FC824CE4
:100CF000A5427CD1814E4FF0400741F21118327865
:100D000040F2444910064FF0000537D42068C1680E
:100D1000C943890732D43146530610D542F08001C9
:100D200031700021204600F004FCB0802068016A88
:100D300021F00A0101622068016A01621EE08D80D3
:100D40003770016A11EA080F07D1016A11EA090F29
:100D500003D1016821F0010101602068456220682B
:100D6000016A21F00A0101622068016A41F0020172
:100D700001622068016841F001010160727810068B
:100D800039D42068C168C943490734D43146530671
:100D900010D542F0800171700421574800F0C9FB62
:100DA000F0802068016A21F0A00101622068016AD8
:100DB000016220E0CD807770016A11EA080F07D147
:100DC000016A11EA090F03D1016821F001010160F4
:100DD000206845622068016A21F0A0010162206854
:100DE000016A41F0200101622068016800E057E0DB
:100DF00041F001010160B278100637D42068C16863
:100E0000C943090732D43146530610D542F0800158
:100E1000B1700821384800F08CFB30812068016AED
:100E200021F4007101622068016A01621EE00D81F7
:100E3000B770016A11EA080F07D1016A11EA090FB8
:100E400003D1016821F0010101602068456220683A
:100E5000016A21F4007101622068016A41F40071A5
:100E600001622068016841F001010160F178080623
:100E700036D42068C268D243D20631D44A0610D58F
:100E800041F08000F0700C211B4800F052FB708193
:100E90002068016A21F4005101622068016A016240
:100EA0001EE07581F770016A11EA080F07D1016A27
:100EB00011EA090F03D1016821F0010101602068E6
:100EC00045622068016A21F4005101622068016ACC
:100ED00041F4005101622068016841F001010160A4
:100EE000BDE8F0470A231A4605A1024800F0A0BB5E
:100EF00061000000C000002030000020140000202D
:100F0000620000002DE9F041054690F83C000C46D7
:100F1000012836D0012085F83C008AB3042A42D04B
:100F20002868082A51D0D4E90023E168066A26F42B
:100F300080560662C669076A26F4407646EA0323AD
:100F40004FF6FF7606EA013123F4704319434FF45C
:100F5000005627F4005306EA02321A43C1610262C6
:100F60002868C16921F44061C1612868C169A2682B
:100F700041EA0221C161002085F83C00BDE8F08112
:100F800001E00220FAE7D4E90012E368286800F0E3
:100F9000F3FD2868816921F00C018161286881696D
:100FA000A26811430FE0D4E90012E368286800F05A
:100FB0002BFE2868816921F440618161286881697C
:100FC000A26841EA02218161D5E7D4E90027267BA6
:100FD000016A21F480710162C169036A21F0030191
:100FE000394321F0F00731074FF4007647EA1161E9
:100FF00023F4007306EA02221A43C16102622868E0
:10100000C16921F00C01C1612868C169A26811435E
:10101000B0E710B5040003D094F83D0010B107E02C
:10102000012010BD002084F83C00204600F01EF88E
:10103000022084F83D00211D206800F063FC01209F
:1010400084F8460084F83E0084F83F0084F84000AD
:1010500084F8410084F8420084F8430084F8440096
:1010600084F8450084F83D00002010BD7047000062
:1010700010B5044651B104290DD0082910D094F8B8
:10108000410094F84520012811D10EE094F83E006B
:1010900094F84220F7E794F83F0094F84320F2E7F1
:1010A00094F8400094F84420EDE7012A01D0012093
:1010B00010BD022051B1042911D0082918D084F89C
:1010C000410084F845000C291BD13CE084F83E0027
:1010D00084F842002068C26842F0020210E084F8FE
:1010E0003F0084F843002068C26842F0040207E031
:1010F00084F8400084F844002068C26842F0080286
:10110000C2600122206800F043FC11492068884237
:101110000ED0104988420BD0B0F1804F08D00E4954
:10112000884205D00D49884202D00D49884204D139
:10113000816801F00701062903D0016841F001012F
:101140000160002010BD2068C26842F01002D7E79D
:10115000002C014000340140000400400008004021
:10116000000C004070B50446006801694FF00005AE
:10117000C943890715D4C168C943890711D4E91E39
:10118000016101202077206880698007204602D015
:10119000FFF7A4FD04E000F0C9F8204600F06CF968
:1011A000257720680169C943490717D4C168C94335
:1011B000490713D46FF004010161022020772068F1
:1011C000806910F4407F204602D0FFF787FD04E0DD
:1011D00000F0ACF8204600F04FF92577206801694F
:1011E000C943090716D4C168C943090712D46FF06F
:1011F00008010161042020772068C069800720462B
:1012000002D0FFF76BFD04E000F090F8204600F0FC
:1012100033F9257720680169C943C90617D4C16825
:10122000C943C90613D46FF010010161082020776B
:101230002068C06910F4407F204602D0FFF74EFDC1
:1012400004E000F073F8204600F016F925772068D6
:101250000169C943C90708D1C168C943C90704D195
:10126000891E0161204600F063F920680169C943C5
:10127000090609D4C168C943090605D46FF0800185
:1012800001612046FFF7D6FB20680169C943490682
:1012900009D4C168C943490605D46FF04001016112
:1012A000204600F05BF920680169C94389060BD428
:1012B000C168C943890607D46FF020010161204647
:1012C000BDE87040FFF7B7BB70BD000000B585B04A
:1012D0000021009101910291039100680F49884219
:1012E0001AD10F48816941F008018161806969461E
:1012F00000F008000490202000900220019003904C
:101300000848FEF76DFF0848416821F4406141F04C
:10131000E06141F40061416005B000BD000400409F
:1013200000100240000C014000000140704770B501
:10133000044690F83C000D4601280AD0012084F8AC
:101340003C0042B1042A18D0082A2AD00C2A4DD1D8
:1013500039E0022070BD206800F03AFB2068816906
:1013600041F0080181612068816921F004018161F7
:10137000206881692A69114311E0206800F058FB58
:101380002068816941F4006181612068816921F4EC
:1013900080618161206881692A6941EA0221816155
:1013A00024E0206800F07AFB2068C16941F0080160
:1013B000C1612068C16921F00401C1612068C1696F
:1013C0002A69114311E0206800F09CFB2068C16984
:1013D00041F40061C1612068C16921F48061C1618B
:1013E0002068C1692A6941EA0221C161002084F8AC
:1013F0003C0070BD10B5040003D094F83D0010B15E
:1014000007E0012010BD002084F83C00204600F0D9
:101410001FF8022084F83D00211D206800F072FAB8
:10142000012084F8460084F83E0084F83F0084F8E8
:10143000400084F8410084F8420084F8430084F8B6
:10144000440084F8450084F83D00002010BD0000F1
:1014500008B500680649884208D10648C16941F0CC
:101460000201C161C06900F00200009008BD0000E7
:1014700000040040001002407047000010B5044610
:10148000022249B104290ED0082913D094F8410052
:10149000012816D0012010BD94F83E000128F9D192
:1014A00084F83E200FE094F83F000128F2D184F840
:1014B0003F2008E094F840000128EBD184F8402058
:1014C00001E084F841200122206800F061FA13490C
:1014D0002068134A884201D0904203D1436C43F400
:1014E00000434364206888420DD090420BD0B0F195
:1014F000804F08D00B49884205D00B49884202D062
:101500000A49884204D1816801F00701062903D005
:10151000016841F001010160002010BD002C014074
:10152000003401400004004000080040000C00406E
:1015300070470246002041B1042909D008290AD089
:101540000C2901D11068006C70471068406B70471F
:101550001068806B70471068C06B7047704770B53B
:10156000040004D094F83D00002510B106E00120ED
:1015700070BD84F83C50204600F022F8242084F806
:101580003D002068C16821F40051C160204600F090
:1015900057FB2068016921F490410161206841698D
:1015A00021F02A0141612068C16841F40051C16005
:1015B0002564202084F83D0084F83E00002070BDA2
:1015C00030B585B00024009401940294039400681F
:1015D0001449884224D11448816941F480418161D1
:1015E000816901F480410491816941F004018161C4
:1015F00080690E4D00F0040004904FF400700090DC
:10160000022001900320039069462846FEF7E8FD7A
:101610002815CDE90004694628460294FEF7E0FD4E
:1016200005B030BD00380140001002400008014004
:101630002DE9F843044690F83D001F4616460D4636
:1016400020284CD1C5B1BEB194F83C00012846D049
:10165000012084F83C004FF00008C4F840802120AD
:1016600084F83D00FEF7B8FEA6848146E684A068B3
:10167000B0F5805F03D004E00120BDE8F883206965
:1016800028B12E465FF0000584F83C800EE000266D
:10169000FAE78021204600F02FFBA0B9AEB116F882
:1016A000010B21684860E08C401EE084E08C4B46D2
:1016B0004FF0000200970028EBD14FF04001204688
:1016C00000F01AFB30B10320D7E735F8020BC0F366
:1016D0000800E6E7202084F83D000020CDE7022046
:1016E000CBE7FEE70D4808B5816941F04001816113
:1016F000816901F040010091816941F0040181613B
:10170000816901F004010091816941F00801816162
:10171000806900F00800009008BD00000010024041
:1017200010B58AB000242F480494059406940794B9
:101730000894099400940194029429490394016047
:101740004721C0E901144FF6FF71C0E90314446159
:101750008461FFF7AFF908B1FEF72EFD4FF480501A
:10176000049004A91F48FFF74DFA08B1FEF724FDC5
:101770001C48FFF74EFC08B1FEF71EFD089408A9AF
:1017800018480994FFF758F908B1FEF715FD012034
:10179000CDE9004002940022694612480394FFF705
:1017A000B1FB08B1FEF708FD042269460D48FFF7BA
:1017B000A9FB08B1FEF700FD082269460948FFF7BA
:1017C000A1FB08B1FEF7F8FC0C2269460548FFF7BB
:1017D00099FB002801D0FEF7EFFC0AB010BD000015
:1017E000002C01403000002010B58AB0002407947E
:1017F0001C2168460894FEF7C0FC16481449016095
:101800004721C0E901144FF47A71C0E903148461DF
:10181000FFF7F0FD08B1FEF7CFFC079407A90D48CC
:101820000894FFF709F908B1FEF7C6FC6020CDE97E
:10183000000402940422694606480494FFF777FDE9
:1018400008B1FEF7B9FC0348FFF740FD0AB010BD30
:1018500000040040780000200C4810B50A490160DF
:101860004FF4E1314160002181600C22C160C0E988
:1018700004128161C161FFF772FE002803D0BDE848
:101880001040FEF799BC10BD00380140C000002098
:10189000FEE7704770477047FEF7A4BD30B58FB0C4
:1018A00028216846FEF769FC14210AA8FEF765FCAA
:1018B00001210804CDE900100024029402250491BE
:1018C000CDE907504FF4E01009906846FEF70EFF8F
:1018D0000F20CDE90A056802CDE90C4002210AA8D3
:1018E0000E94FEF717FE0FB030BD70470148FFF7AA
:1018F00039BC0000300000200148FFF733BC000075
:1019000030000020F0B502681C4B1D4D1D4E1E4FCF
:101910001E4C4FF0804C984209D0A04207D0604541
:1019200005D0A84203D0B04201D0B84204D122F081
:10193000700E4A6842EA0E02984209D0A04207D0CF
:10194000604505D0A84203D0B04201D0B84203D1CF
:1019500022F44075CA682A434D6922F080022A4366
:1019600002608A68C2620A688262984201D0A0421C
:1019700001D10969016301214161F0BD002C0140E1
:101980000004004000080040000C0040003401400A
:1019900010B501F01F030121046A99408C430462D1
:1019A000016A9A401143016210BD10B5846842EA91
:1019B000032224F47F440A432243826010BD8268DC
:1019C00022F070020A4342F0070181607047000074
:1019D000F0B5026A22F001020262036A4268846979
:1019E000124E24F073050C682C4323F002058B681B
:1019F0002B430D4DA84201D0B04205D123F008077A
:101A0000CB683B4323F00403A84201D0B04205D188
:101A10004D6922F4407215438A692A434260846109
:101A2000496841630362F0BD002C0140003401406D
:101A3000F0B5026A22F010020262026A4368846909
:101A40000D6824F4E64444EA05248D6822F020025F
:101A500042EA05120F4D104EA84201D0B04206D105
:101A6000CF6822F0800242EA071222F04002A84228
:101A700001D0B04207D14D6923F4406343EA8503A6
:101A80008D6943EA8503436084614968816302622A
:101A9000F0BD0000002C014000340140F0B5026AA6
:101AA00022F480720262026A4368C46922F40072FE
:101AB00024F073050C68124E2C438D6842EA05220F
:101AC0000E4DA84201D0B04206D1CF6822F4006288
:101AD00042EA072222F48062A84201D0B04207D134
:101AE0004D6923F4405343EA05138D6943EA051316
:101AF0004360C4614968C1630262F0BD002C0140CB
:101B00000034014030B5026A22F480520262046A55
:101B10004268C3690D6823F4E64343EA05238D68F0
:101B200024F4005444EA0534084DA84202D0084D7C
:101B3000A84204D14D6922F4804242EA85124260F3
:101B4000C36149680164046230BD0000002C01409B
:101B50000034014010B5036A046A24F001040462F1
:101B6000846924F0F00444EA021423F00A020A43D0
:101B70008461026210BD000070B5046A24F00104A3
:101B800004628469056A124EB0420ED0114EB04212
:101B90000BD0B0F1804F08D00F4EB04205D00F4EA1
:101BA000B04202D00E4EB04203D124F003041443DD
:101BB00001E044F001041A0724F0F00444EA126240
:101BC00025F00A0301F00A0119438261016270BD28
:101BD000002C014000340140000400400008004097
:101BE000000C004010B5036A23F010030362836900
:101BF000046A23F4704343EA023224F0A00343EA68
:101C000001118261016210BD30B5046A24F0100434
:101C100004628469056A24F4407444EA022222F4CE
:101C200070444FF6FF7202EA03322243A02425F0EB
:101C3000A00304EA011119438261016230BD000072
:101C400070B5044600680169E26821F4405111430F
:101C500001612169A0680843616908432168CA6875
:101C600041F20C639A430243CA6020684169A26949
:101C700021F44071114341611E492068884202D11C
:101C8000FEF7EEFC01E0FEF7DBFC00EBC00101EB30
:101C90000012606864218000B2FBF0F3B3FBF1F343
:101CA0006FF018067343B2FBF0F5B2FBF0F605EBEC
:101CB0008305322303EB0515B5FBF1F5B6FBF1F611
:101CC00005F0F00505EB0615B2FBF0F6B2FBF0F0FF
:101CD000B0FBF1F06FF01802504306EB800003EB0D
:101CE0000010B0FBF1F0216800F00F00284488607C
:101CF00070BD0000003801402DE9F04198461746BC
:101D00000E460446069D1DE0681C1BD02DB1FEF753
:101D100063FBA0EB0800A84214D92068C16821F435
:101D2000D071C1602068416921F00101416120202A
:101D300084F83D0084F83E00002084F83C00032035
:101D4000BDE8F0812068006836EA000004D0002079
:101D5000B842D9D00020F3E70120F9E7FEE70907F0
:101D6000090E002804DB00F1E02080F80014704721
:101D700000F00F0000F1E02080F8141D704702E031
:101D800008C8121F08C1002AFAD170477047002006
:101D900001E001C1121F002AFBD17047FEF72AFBA8
:101DA000FFF77CFDFFF79EFCFFF756FDFFF7B8FC41
:101DB000FFF71AFD00212D48FFF75AF904212B489F
:101DC000FFF756F908212948FFF752F90C21274857
:101DD000FFF74EF92648FEF7E3FE04212448FFF7FB
:101DE0004DFB244EDFF89080DFF89090244DDFF813
:101DF00094A0DFF87CB0244F00243078000606D58C
:101E0000224829680088084421490860347098F8FD
:101E10000010090607D51F492A68098811441E4A7F
:101E2000116088F8004099F80010090606D51B4992
:101E30002A6809881144396089F800409AF800102E
:101E4000090607D516492A6809881144154A116000
:101E50008AF800403868A0F24C404142DBF80000AC
:101E600081630A20FEF7AAF9C7E7000030000020CE
:101E7000780000201400002015000020160000202B
:101E8000100000201700002008000020180000208B
:101E9000000000201A000020040000201C00002088
:101EA0001E0000200C0000200000000000000000C8
:101EB00001020304060708090000000001020304F0
:101EC000E01E000800000020300000007E1D000819
:101ED000101F000830000020D80400008E1D0008EC
:101EE00000000000000000000000000000000000F2
:101EF00092FFFFFF00000000000000000000000053
:101F00000100000010000000000000000024F400A8
:0400000508000131BD
:00000001FF
